{
  "_format": "hh-sol-artifact-1",
  "contractName": "SBBaseContract",
  "sourceName": "contracts/SBBaseContract.sol",
  "abi": [
    {
      "inputs": [
        {
          "internalType": "string",
          "name": "_name",
          "type": "string"
        },
        {
          "internalType": "string",
          "name": "_symbol",
          "type": "string"
        },
        {
          "internalType": "uint256",
          "name": "_initialSupply",
          "type": "uint256"
        }
      ],
      "stateMutability": "nonpayable",
      "type": "constructor"
    },
    {
      "inputs": [
        {
          "internalType": "address",
          "name": "spender",
          "type": "address"
        },
        {
          "internalType": "uint256",
          "name": "allowance",
          "type": "uint256"
        },
        {
          "internalType": "uint256",
          "name": "needed",
          "type": "uint256"
        }
      ],
      "name": "ERC20InsufficientAllowance",
      "type": "error"
    },
    {
      "inputs": [
        {
          "internalType": "address",
          "name": "sender",
          "type": "address"
        },
        {
          "internalType": "uint256",
          "name": "balance",
          "type": "uint256"
        },
        {
          "internalType": "uint256",
          "name": "needed",
          "type": "uint256"
        }
      ],
      "name": "ERC20InsufficientBalance",
      "type": "error"
    },
    {
      "inputs": [
        {
          "internalType": "address",
          "name": "approver",
          "type": "address"
        }
      ],
      "name": "ERC20InvalidApprover",
      "type": "error"
    },
    {
      "inputs": [
        {
          "internalType": "address",
          "name": "receiver",
          "type": "address"
        }
      ],
      "name": "ERC20InvalidReceiver",
      "type": "error"
    },
    {
      "inputs": [
        {
          "internalType": "address",
          "name": "sender",
          "type": "address"
        }
      ],
      "name": "ERC20InvalidSender",
      "type": "error"
    },
    {
      "inputs": [
        {
          "internalType": "address",
          "name": "spender",
          "type": "address"
        }
      ],
      "name": "ERC20InvalidSpender",
      "type": "error"
    },
    {
      "inputs": [
        {
          "internalType": "address",
          "name": "owner",
          "type": "address"
        }
      ],
      "name": "OwnableInvalidOwner",
      "type": "error"
    },
    {
      "inputs": [
        {
          "internalType": "address",
          "name": "account",
          "type": "address"
        }
      ],
      "name": "OwnableUnauthorizedAccount",
      "type": "error"
    },
    {
      "inputs": [],
      "name": "ReentrancyGuardReentrantCall",
      "type": "error"
    },
    {
      "anonymous": false,
      "inputs": [
        {
          "indexed": true,
          "internalType": "address",
          "name": "owner",
          "type": "address"
        },
        {
          "indexed": true,
          "internalType": "address",
          "name": "spender",
          "type": "address"
        },
        {
          "indexed": false,
          "internalType": "uint256",
          "name": "value",
          "type": "uint256"
        }
      ],
      "name": "Approval",
      "type": "event"
    },
    {
      "anonymous": false,
      "inputs": [
        {
          "indexed": true,
          "internalType": "address",
          "name": "previousOwner",
          "type": "address"
        },
        {
          "indexed": true,
          "internalType": "address",
          "name": "newOwner",
          "type": "address"
        }
      ],
      "name": "OwnershipTransferred",
      "type": "event"
    },
    {
      "anonymous": false,
      "inputs": [
        {
          "indexed": true,
          "internalType": "address",
          "name": "from",
          "type": "address"
        },
        {
          "indexed": true,
          "internalType": "address",
          "name": "to",
          "type": "address"
        },
        {
          "indexed": false,
          "internalType": "uint256",
          "name": "value",
          "type": "uint256"
        }
      ],
      "name": "Transfer",
      "type": "event"
    },
    {
      "stateMutability": "payable",
      "type": "fallback"
    },
    {
      "inputs": [
        {
          "internalType": "address",
          "name": "owner",
          "type": "address"
        },
        {
          "internalType": "address",
          "name": "spender",
          "type": "address"
        }
      ],
      "name": "allowance",
      "outputs": [
        {
          "internalType": "uint256",
          "name": "",
          "type": "uint256"
        }
      ],
      "stateMutability": "view",
      "type": "function"
    },
    {
      "inputs": [
        {
          "internalType": "address",
          "name": "spender",
          "type": "address"
        },
        {
          "internalType": "uint256",
          "name": "value",
          "type": "uint256"
        }
      ],
      "name": "approve",
      "outputs": [
        {
          "internalType": "bool",
          "name": "",
          "type": "bool"
        }
      ],
      "stateMutability": "nonpayable",
      "type": "function"
    },
    {
      "inputs": [
        {
          "internalType": "address",
          "name": "account",
          "type": "address"
        }
      ],
      "name": "balanceOf",
      "outputs": [
        {
          "internalType": "uint256",
          "name": "",
          "type": "uint256"
        }
      ],
      "stateMutability": "view",
      "type": "function"
    },
    {
      "inputs": [
        {
          "internalType": "address",
          "name": "account",
          "type": "address"
        }
      ],
      "name": "burnItAll",
      "outputs": [],
      "stateMutability": "nonpayable",
      "type": "function"
    },
    {
      "inputs": [],
      "name": "decimals",
      "outputs": [
        {
          "internalType": "uint8",
          "name": "",
          "type": "uint8"
        }
      ],
      "stateMutability": "view",
      "type": "function"
    },
    {
      "inputs": [],
      "name": "name",
      "outputs": [
        {
          "internalType": "string",
          "name": "",
          "type": "string"
        }
      ],
      "stateMutability": "view",
      "type": "function"
    },
    {
      "inputs": [],
      "name": "owner",
      "outputs": [
        {
          "internalType": "address",
          "name": "",
          "type": "address"
        }
      ],
      "stateMutability": "view",
      "type": "function"
    },
    {
      "inputs": [],
      "name": "renounceOwnership",
      "outputs": [],
      "stateMutability": "nonpayable",
      "type": "function"
    },
    {
      "inputs": [],
      "name": "symbol",
      "outputs": [
        {
          "internalType": "string",
          "name": "",
          "type": "string"
        }
      ],
      "stateMutability": "view",
      "type": "function"
    },
    {
      "inputs": [],
      "name": "tokenDecimals",
      "outputs": [
        {
          "internalType": "uint8",
          "name": "",
          "type": "uint8"
        }
      ],
      "stateMutability": "view",
      "type": "function"
    },
    {
      "inputs": [],
      "name": "totalSupply",
      "outputs": [
        {
          "internalType": "uint256",
          "name": "",
          "type": "uint256"
        }
      ],
      "stateMutability": "view",
      "type": "function"
    },
    {
      "inputs": [
        {
          "internalType": "address",
          "name": "to",
          "type": "address"
        },
        {
          "internalType": "uint256",
          "name": "value",
          "type": "uint256"
        }
      ],
      "name": "transfer",
      "outputs": [
        {
          "internalType": "bool",
          "name": "",
          "type": "bool"
        }
      ],
      "stateMutability": "nonpayable",
      "type": "function"
    },
    {
      "inputs": [
        {
          "internalType": "address",
          "name": "from",
          "type": "address"
        },
        {
          "internalType": "address",
          "name": "to",
          "type": "address"
        },
        {
          "internalType": "uint256",
          "name": "value",
          "type": "uint256"
        }
      ],
      "name": "transferFrom",
      "outputs": [
        {
          "internalType": "bool",
          "name": "",
          "type": "bool"
        }
      ],
      "stateMutability": "nonpayable",
      "type": "function"
    },
    {
      "inputs": [
        {
          "internalType": "address",
          "name": "newOwner",
          "type": "address"
        }
      ],
      "name": "transferOwnership",
      "outputs": [],
      "stateMutability": "nonpayable",
      "type": "function"
    },
    {
      "stateMutability": "payable",
      "type": "receive"
    }
  ],
  "bytecode": "0x60a060405260006080523480156200001657600080fd5b506040516200110e3803806200110e83398101604081905262000039916200033d565b33838360036200004a838262000441565b50600462000059828262000441565b5050506001600160a01b0381166200008c57604051631e4fbdf760e01b8152600060048201526024015b60405180910390fd5b6200009781620000b2565b506001600655620000a9338262000104565b50505062000535565b600580546001600160a01b038381166001600160a01b0319831681179093556040519116919082907f8be0079c531659141344cd1fd0a4f28419497f9722a3daafe3b4186f6b6457e090600090a35050565b6001600160a01b038216620001305760405163ec442f0560e01b81526000600482015260240162000083565b6200013e6000838362000142565b5050565b6001600160a01b038316620001715780600260008282546200016591906200050d565b90915550620001e59050565b6001600160a01b03831660009081526020819052604090205481811015620001c65760405163391434e360e21b81526001600160a01b0385166004820152602481018290526044810183905260640162000083565b6001600160a01b03841660009081526020819052604090209082900390555b6001600160a01b038216620002035760028054829003905562000222565b6001600160a01b03821660009081526020819052604090208054820190555b816001600160a01b0316836001600160a01b03167fddf252ad1be2c89b69c2b068fc378daa952ba7f163c4a11628f55a4df523b3ef836040516200026891815260200190565b60405180910390a3505050565b634e487b7160e01b600052604160045260246000fd5b600082601f8301126200029d57600080fd5b81516001600160401b0380821115620002ba57620002ba62000275565b604051601f8301601f19908116603f01168101908282118183101715620002e557620002e562000275565b81604052838152602092508660208588010111156200030357600080fd5b600091505b8382101562000327578582018301518183018401529082019062000308565b6000602085830101528094505050505092915050565b6000806000606084860312156200035357600080fd5b83516001600160401b03808211156200036b57600080fd5b62000379878388016200028b565b945060208601519150808211156200039057600080fd5b506200039f868287016200028b565b925050604084015190509250925092565b600181811c90821680620003c557607f821691505b602082108103620003e657634e487b7160e01b600052602260045260246000fd5b50919050565b601f8211156200043c576000816000526020600020601f850160051c81016020861015620004175750805b601f850160051c820191505b81811015620004385782815560010162000423565b5050505b505050565b81516001600160401b038111156200045d576200045d62000275565b62000475816200046e8454620003b0565b84620003ec565b602080601f831160018114620004ad5760008415620004945750858301515b600019600386901b1c1916600185901b17855562000438565b600085815260208120601f198616915b82811015620004de57888601518255948401946001909101908401620004bd565b5085821015620004fd5787850151600019600388901b60f8161c191681555b5050505050600190811b01905550565b808201808211156200052f57634e487b7160e01b600052601160045260246000fd5b92915050565b608051610bbd62000551600039600061025c0152610bbd6000f3fe6080604052600436106100e15760003560e01c806370a082311161007f57806395d89b411161005957806395d89b4114610311578063a9059cbb14610326578063dd62ed3e14610346578063f2fde38b1461038c576100fa565b806370a082311461029e578063715018a6146102d45780638da5cb5b146102e9576100fa565b806323b872dd116100bb57806323b872dd14610208578063313ce567146102285780633b97e8561461024a5780635254c0c91461027e576100fa565b806306fdde031461018e578063095ea7b3146101b957806318160ddd146101e9576100fa565b366100fa576100ee6103ac565b6100f86001600655565b005b6101026103ac565b6101396040518060400160405280601681526020017511985b1b189858dac81b595d1a1bd90818d85b1b195960521b8152506103d6565b61014e6000356001600160e01b03191661041c565b6100ee6000368080601f01602080910402602001604051908101604052809392919081815260200183838082843760009201919091525061046592505050565b34801561019a57600080fd5b506101a36104a8565b6040516101b09190610a42565b60405180910390f35b3480156101c557600080fd5b506101d96101d4366004610a78565b61053a565b60405190151581526020016101b0565b3480156101f557600080fd5b506002545b6040519081526020016101b0565b34801561021457600080fd5b506101d9610223366004610aa2565b610554565b34801561023457600080fd5b5060125b60405160ff90911681526020016101b0565b34801561025657600080fd5b506102387f000000000000000000000000000000000000000000000000000000000000000081565b34801561028a57600080fd5b506100f8610299366004610ade565b610578565b3480156102aa57600080fd5b506101fa6102b9366004610ade565b6001600160a01b031660009081526020819052604090205490565b3480156102e057600080fd5b506100f86105ba565b3480156102f557600080fd5b506005546040516001600160a01b0390911681526020016101b0565b34801561031d57600080fd5b506101a36105ce565b34801561033257600080fd5b506101d9610341366004610a78565b6105dd565b34801561035257600080fd5b506101fa610361366004610af9565b6001600160a01b03918216600090815260016020908152604080832093909416825291909152205490565b34801561039857600080fd5b506100f86103a7366004610ade565b6105eb565b6002600654036103cf57604051633ee5aeb560e01b815260040160405180910390fd5b6002600655565b610419816040516024016103ea9190610a42565b60408051601f198184030181529190526020810180516001600160e01b031663104c13eb60e21b17905261062b565b50565b6040516001600160e01b0319821660248201526104199060440160408051601f198184030181529190526020810180516001600160e01b031663e05f48d160e01b17905261062b565b610419816040516024016104799190610a42565b60408051601f198184030181529190526020810180516001600160e01b03166305f3bfab60e11b17905261062b565b6060600380546104b790610b2c565b80601f01602080910402602001604051908101604052809291908181526020018280546104e390610b2c565b80156105305780601f1061050557610100808354040283529160200191610530565b820191906000526020600020905b81548152906001019060200180831161051357829003601f168201915b5050505050905090565b600033610548818585610634565b60019150505b92915050565b600033610562858285610646565b61056d8585856106c4565b506001949350505050565b610580610723565b6105886103ac565b6105b0816105ab836001600160a01b031660009081526020819052604090205490565b610750565b6104196001600655565b6105c2610723565b6105cc600061078a565b565b6060600480546104b790610b2c565b6000336105488185856106c4565b6105f3610723565b6001600160a01b03811661062257604051631e4fbdf760e01b8152600060048201526024015b60405180910390fd5b6104198161078a565b610419816107dc565b61064183838360016107fd565b505050565b6001600160a01b0383811660009081526001602090815260408083209386168352929052205460001981146106be57818110156106af57604051637dc7a0d960e11b81526001600160a01b03841660048201526024810182905260448101839052606401610619565b6106be848484840360006107fd565b50505050565b6001600160a01b0383166106ee57604051634b637e8f60e11b815260006004820152602401610619565b6001600160a01b0382166107185760405163ec442f0560e01b815260006004820152602401610619565b6106418383836108d2565b6005546001600160a01b031633146105cc5760405163118cdaa760e01b8152336004820152602401610619565b6001600160a01b03821661077a57604051634b637e8f60e11b815260006004820152602401610619565b610786826000836108d2565b5050565b600580546001600160a01b038381166001600160a01b0319831681179093556040519116919082907f8be0079c531659141344cd1fd0a4f28419497f9722a3daafe3b4186f6b6457e090600090a35050565b60006a636f6e736f6c652e6c6f679050600080835160208501845afa505050565b6001600160a01b0384166108275760405163e602df0560e01b815260006004820152602401610619565b6001600160a01b03831661085157604051634a1406b160e11b815260006004820152602401610619565b6001600160a01b03808516600090815260016020908152604080832093871683529290522082905580156106be57826001600160a01b0316846001600160a01b03167f8c5be1e5ebec7d5bd14f71427d1e84f3dd0314c0f7b2291e5b200ac8c7c3b925846040516108c491815260200190565b60405180910390a350505050565b6001600160a01b0383166108fd5780600260008282546108f29190610b66565b9091555061096f9050565b6001600160a01b038316600090815260208190526040902054818110156109505760405163391434e360e21b81526001600160a01b03851660048201526024810182905260448101839052606401610619565b6001600160a01b03841660009081526020819052604090209082900390555b6001600160a01b03821661098b576002805482900390556109aa565b6001600160a01b03821660009081526020819052604090208054820190555b816001600160a01b0316836001600160a01b03167fddf252ad1be2c89b69c2b068fc378daa952ba7f163c4a11628f55a4df523b3ef836040516109ef91815260200190565b60405180910390a3505050565b6000815180845260005b81811015610a2257602081850181015186830182015201610a06565b506000602082860101526020601f19601f83011685010191505092915050565b602081526000610a5560208301846109fc565b9392505050565b80356001600160a01b0381168114610a7357600080fd5b919050565b60008060408385031215610a8b57600080fd5b610a9483610a5c565b946020939093013593505050565b600080600060608486031215610ab757600080fd5b610ac084610a5c565b9250610ace60208501610a5c565b9150604084013590509250925092565b600060208284031215610af057600080fd5b610a5582610a5c565b60008060408385031215610b0c57600080fd5b610b1583610a5c565b9150610b2360208401610a5c565b90509250929050565b600181811c90821680610b4057607f821691505b602082108103610b6057634e487b7160e01b600052602260045260246000fd5b50919050565b8082018082111561054e57634e487b7160e01b600052601160045260246000fdfea2646970667358221220e0e385345d6d2cbede87bce155204b9642d2735eae5a8d085a98aea33a82c91464736f6c63430008180033",
  "linkReferences": {},
  "deployedLinkReferences": {}
}